{"abi":[{"type":"constructor","inputs":[{"name":"_globalExitRootManager","type":"address","internalType":"contract IEigenGlobalExitRoot"},{"name":"_bridgeAddress","type":"address","internalType":"contract IEigenBridge"},{"name":"_chainID","type":"uint64","internalType":"uint64"}],"stateMutability":"nonpayable"},{"type":"function","name":"admin","inputs":[],"outputs":[{"name":"","type":"address","internalType":"address"}],"stateMutability":"view"},{"type":"function","name":"batchFee","inputs":[],"outputs":[{"name":"","type":"uint256","internalType":"uint256"}],"stateMutability":"view"},{"type":"function","name":"batchNumToStateRoot","inputs":[{"name":"","type":"uint64","internalType":"uint64"}],"outputs":[{"name":"","type":"bytes32","internalType":"bytes32"}],"stateMutability":"view"},{"type":"function","name":"bridgeAddress","inputs":[],"outputs":[{"name":"","type":"address","internalType":"contract IEigenBridge"}],"stateMutability":"view"},{"type":"function","name":"chainID","inputs":[],"outputs":[{"name":"","type":"uint64","internalType":"uint64"}],"stateMutability":"view"},{"type":"function","name":"consolidatePendingState","inputs":[{"name":"pendingStateNum","type":"uint64","internalType":"uint64"}],"outputs":[],"stateMutability":"nonpayable"},{"type":"function","name":"forceBatchTimeout","inputs":[],"outputs":[{"name":"","type":"uint64","internalType":"uint64"}],"stateMutability":"view"},{"type":"function","name":"getLastVerifiedBatch","inputs":[],"outputs":[{"name":"","type":"uint64","internalType":"uint64"}],"stateMutability":"view"},{"type":"function","name":"globalExitRootManager","inputs":[],"outputs":[{"name":"","type":"address","internalType":"contract IEigenGlobalExitRoot"}],"stateMutability":"view"},{"type":"function","name":"initialize","inputs":[{"name":"stateRoot","type":"bytes32","internalType":"bytes32"}],"outputs":[],"stateMutability":"nonpayable"},{"type":"function","name":"isForcedBatchDisallowed","inputs":[],"outputs":[{"name":"","type":"bool","internalType":"bool"}],"stateMutability":"view"},{"type":"function","name":"isPendingStateConsolidable","inputs":[{"name":"pendingStateNum","type":"uint64","internalType":"uint64"}],"outputs":[{"name":"","type":"bool","internalType":"bool"}],"stateMutability":"view"},{"type":"function","name":"lastBatchSequenced","inputs":[],"outputs":[{"name":"","type":"uint64","internalType":"uint64"}],"stateMutability":"view"},{"type":"function","name":"lastForceBatch","inputs":[],"outputs":[{"name":"","type":"uint64","internalType":"uint64"}],"stateMutability":"view"},{"type":"function","name":"lastPendingState","inputs":[],"outputs":[{"name":"","type":"uint64","internalType":"uint64"}],"stateMutability":"view"},{"type":"function","name":"lastPendingStateConsolidated","inputs":[],"outputs":[{"name":"","type":"uint64","internalType":"uint64"}],"stateMutability":"view"},{"type":"function","name":"lastTimestamp","inputs":[],"outputs":[{"name":"","type":"uint64","internalType":"uint64"}],"stateMutability":"view"},{"type":"function","name":"lastVerifiedBatch","inputs":[],"outputs":[{"name":"","type":"uint64","internalType":"uint64"}],"stateMutability":"view"},{"type":"function","name":"multiplierBatchFee","inputs":[],"outputs":[{"name":"","type":"uint16","internalType":"uint16"}],"stateMutability":"view"},{"type":"function","name":"owner","inputs":[],"outputs":[{"name":"","type":"address","internalType":"address"}],"stateMutability":"view"},{"type":"function","name":"pendingAdmin","inputs":[],"outputs":[{"name":"","type":"address","internalType":"address"}],"stateMutability":"view"},{"type":"function","name":"pendingStateTimeout","inputs":[],"outputs":[{"name":"","type":"uint64","internalType":"uint64"}],"stateMutability":"view"},{"type":"function","name":"pendingStateTransitions","inputs":[{"name":"","type":"uint256","internalType":"uint256"}],"outputs":[{"name":"timestamp","type":"uint64","internalType":"uint64"},{"name":"lastVerifiedBatch","type":"uint64","internalType":"uint64"},{"name":"exitRoot","type":"bytes32","internalType":"bytes32"},{"name":"stateRoot","type":"bytes32","internalType":"bytes32"}],"stateMutability":"view"},{"type":"function","name":"renounceOwnership","inputs":[],"outputs":[],"stateMutability":"nonpayable"},{"type":"function","name":"sequenceBatches","inputs":[{"name":"batches","type":"tuple[]","internalType":"struct EigenZkVM.BatchData[]","components":[{"name":"transactions","type":"bytes","internalType":"bytes"},{"name":"globalExitRoot","type":"bytes32","internalType":"bytes32"},{"name":"timestamp","type":"uint64","internalType":"uint64"}]}],"outputs":[],"stateMutability":"nonpayable"},{"type":"function","name":"sequencedBatches","inputs":[{"name":"","type":"uint64","internalType":"uint64"}],"outputs":[{"name":"accInputHash","type":"bytes32","internalType":"bytes32"},{"name":"sequencedTimestamp","type":"uint64","internalType":"uint64"},{"name":"previousLastBatchSequenced","type":"uint64","internalType":"uint64"}],"stateMutability":"view"},{"type":"function","name":"setForceBatchTimeout","inputs":[{"name":"newforceBatchTimeout","type":"uint64","internalType":"uint64"}],"outputs":[],"stateMutability":"nonpayable"},{"type":"function","name":"setPendingStateTimeout","inputs":[{"name":"newPendingStateTimeout","type":"uint64","internalType":"uint64"}],"outputs":[],"stateMutability":"nonpayable"},{"type":"function","name":"setTrustedAggregatorTimeout","inputs":[{"name":"newTrustedAggregatorTimeout","type":"uint64","internalType":"uint64"}],"outputs":[],"stateMutability":"nonpayable"},{"type":"function","name":"setTrustedSequencer","inputs":[{"name":"newTrustedSequencer","type":"address","internalType":"address"}],"outputs":[],"stateMutability":"nonpayable"},{"type":"function","name":"setVerifyBatchTimeTarget","inputs":[{"name":"newVerifyBatchTimeTarget","type":"uint64","internalType":"uint64"}],"outputs":[],"stateMutability":"nonpayable"},{"type":"function","name":"transferAdminRole","inputs":[{"name":"newPendingAdmin","type":"address","internalType":"address"}],"outputs":[],"stateMutability":"nonpayable"},{"type":"function","name":"transferOwnership","inputs":[{"name":"newOwner","type":"address","internalType":"address"}],"outputs":[],"stateMutability":"nonpayable"},{"type":"function","name":"trustedAggregatorTimeout","inputs":[],"outputs":[{"name":"","type":"uint64","internalType":"uint64"}],"stateMutability":"view"},{"type":"function","name":"trustedSequencer","inputs":[],"outputs":[{"name":"","type":"address","internalType":"address"}],"stateMutability":"view"},{"type":"function","name":"verifyBatchTimeTarget","inputs":[],"outputs":[{"name":"","type":"uint64","internalType":"uint64"}],"stateMutability":"view"},{"type":"function","name":"verifyBatches","inputs":[{"name":"pendingStateNum","type":"uint64","internalType":"uint64"},{"name":"initNumBatch","type":"uint64","internalType":"uint64"},{"name":"finalNewBatch","type":"uint64","internalType":"uint64"},{"name":"newLocalExitRoot","type":"bytes32","internalType":"bytes32"},{"name":"newStateRoot","type":"bytes32","internalType":"bytes32"},{"name":"proof","type":"tuple","internalType":"struct Verifier.Proof","components":[{"name":"a","type":"tuple","internalType":"struct Pairing.G1Point","components":[{"name":"X","type":"uint256","internalType":"uint256"},{"name":"Y","type":"uint256","internalType":"uint256"}]},{"name":"b","type":"tuple","internalType":"struct Pairing.G2Point","components":[{"name":"X","type":"uint256[2]","internalType":"uint256[2]"},{"name":"Y","type":"uint256[2]","internalType":"uint256[2]"}]},{"name":"c","type":"tuple","internalType":"struct Pairing.G1Point","components":[{"name":"X","type":"uint256","internalType":"uint256"},{"name":"Y","type":"uint256","internalType":"uint256"}]}]},{"name":"input","type":"uint256[1]","internalType":"uint256[1]"}],"outputs":[],"stateMutability":"nonpayable"},{"type":"function","name":"verifyBatchesTrustedAggregator","inputs":[{"name":"pendingStateNum","type":"uint64","internalType":"uint64"},{"name":"initNumBatch","type":"uint64","internalType":"uint64"},{"name":"finalNewBatch","type":"uint64","internalType":"uint64"},{"name":"newLocalExitRoot","type":"bytes32","internalType":"bytes32"},{"name":"newStateRoot","type":"bytes32","internalType":"bytes32"},{"name":"proof","type":"tuple","internalType":"struct Verifier.Proof","components":[{"name":"a","type":"tuple","internalType":"struct Pairing.G1Point","components":[{"name":"X","type":"uint256","internalType":"uint256"},{"name":"Y","type":"uint256","internalType":"uint256"}]},{"name":"b","type":"tuple","internalType":"struct Pairing.G2Point","components":[{"name":"X","type":"uint256[2]","internalType":"uint256[2]"},{"name":"Y","type":"uint256[2]","internalType":"uint256[2]"}]},{"name":"c","type":"tuple","internalType":"struct Pairing.G1Point","components":[{"name":"X","type":"uint256","internalType":"uint256"},{"name":"Y","type":"uint256","internalType":"uint256"}]}]},{"name":"input","type":"uint256[1]","internalType":"uint256[1]"}],"outputs":[],"stateMutability":"nonpayable"},{"type":"function","name":"verifyTx","inputs":[{"name":"proof","type":"tuple","internalType":"struct Verifier.Proof","components":[{"name":"a","type":"tuple","internalType":"struct Pairing.G1Point","components":[{"name":"X","type":"uint256","internalType":"uint256"},{"name":"Y","type":"uint256","internalType":"uint256"}]},{"name":"b","type":"tuple","internalType":"struct Pairing.G2Point","components":[{"name":"X","type":"uint256[2]","internalType":"uint256[2]"},{"name":"Y","type":"uint256[2]","internalType":"uint256[2]"}]},{"name":"c","type":"tuple","internalType":"struct Pairing.G1Point","components":[{"name":"X","type":"uint256","internalType":"uint256"},{"name":"Y","type":"uint256","internalType":"uint256"}]}]},{"name":"input","type":"uint256[1]","internalType":"uint256[1]"}],"outputs":[{"name":"r","type":"bool","internalType":"bool"}],"stateMutability":"view"},{"type":"event","name":"AcceptAdminRole","inputs":[{"name":"newAdmin","type":"address","indexed":false,"internalType":"address"}],"anonymous":false},{"type":"event","name":"ConsolidatePendingState","inputs":[{"name":"numBatch","type":"uint64","indexed":true,"internalType":"uint64"},{"name":"stateRoot","type":"bytes32","indexed":false,"internalType":"bytes32"},{"name":"pendingStateNum","type":"uint64","indexed":true,"internalType":"uint64"}],"anonymous":false},{"type":"event","name":"Initialized","inputs":[{"name":"version","type":"uint8","indexed":false,"internalType":"uint8"}],"anonymous":false},{"type":"event","name":"OwnershipTransferred","inputs":[{"name":"previousOwner","type":"address","indexed":true,"internalType":"address"},{"name":"newOwner","type":"address","indexed":true,"internalType":"address"}],"anonymous":false},{"type":"event","name":"ProveNonDeterministicPendingState","inputs":[{"name":"storedStateRoot","type":"bytes32","indexed":false,"internalType":"bytes32"},{"name":"provedStateRoot","type":"bytes32","indexed":false,"internalType":"bytes32"}],"anonymous":false},{"type":"event","name":"SequenceBatches","inputs":[{"name":"numBatch","type":"uint64","indexed":true,"internalType":"uint64"}],"anonymous":false},{"type":"event","name":"SequenceForceBatches","inputs":[{"name":"numBatch","type":"uint64","indexed":true,"internalType":"uint64"}],"anonymous":false},{"type":"event","name":"SetForceBatchTimeout","inputs":[{"name":"newforceBatchTimeout","type":"uint64","indexed":false,"internalType":"uint64"}],"anonymous":false},{"type":"event","name":"SetPendingStateTimeout","inputs":[{"name":"newPendingStateTimeout","type":"uint64","indexed":false,"internalType":"uint64"}],"anonymous":false},{"type":"event","name":"SetTrustedAggregator","inputs":[{"name":"newTrustedAggregator","type":"address","indexed":false,"internalType":"address"}],"anonymous":false},{"type":"event","name":"SetTrustedAggregatorTimeout","inputs":[{"name":"newTrustedAggregatorTimeout","type":"uint64","indexed":false,"internalType":"uint64"}],"anonymous":false},{"type":"event","name":"SetTrustedSequencer","inputs":[{"name":"newTrustedSequencer","type":"address","indexed":false,"internalType":"address"}],"anonymous":false},{"type":"event","name":"SetTrustedSequencerURL","inputs":[{"name":"newTrustedSequencerURL","type":"string","indexed":false,"internalType":"string"}],"anonymous":false},{"type":"event","name":"SetVerifyBatchTimeTarget","inputs":[{"name":"newVerifyBatchTimeTarget","type":"uint64","indexed":false,"internalType":"uint64"}],"anonymous":false},{"type":"event","name":"TransferAdminRole","inputs":[{"name":"newPendingAdmin","type":"address","indexed":false,"internalType":"address"}],"anonymous":false},{"type":"event","name":"VerifyBatches","inputs":[{"name":"numBatch","type":"uint64","indexed":true,"internalType":"uint64"},{"name":"stateRoot","type":"bytes32","indexed":false,"internalType":"bytes32"},{"name":"aggregator","type":"address","indexed":true,"internalType":"address"}],"anonymous":false},{"type":"event","name":"VerifyBatchesTrustedAggregator","inputs":[{"name":"numBatch","type":"uint64","indexed":true,"internalType":"uint64"},{"name":"stateRoot","type":"bytes32","indexed":false,"internalType":"bytes32"},{"name":"aggregator","type":"address","indexed":true,"internalType":"address"}],"anonymous":false},{"type":"error","name":"BatchAlreadyVerified","inputs":[]},{"type":"error","name":"BatchNotSequencedOrNotSequenceEnd","inputs":[]},{"type":"error","name":"ExceedMaxVerifyBatches","inputs":[]},{"type":"error","name":"FinalNumBatchBelowLastVerifiedBatch","inputs":[]},{"type":"error","name":"FinalNumBatchDoesNotMatchPendingState","inputs":[]},{"type":"error","name":"FinalPendingStateNumInvalid","inputs":[]},{"type":"error","name":"ForceBatchNotAllowed","inputs":[]},{"type":"error","name":"ForceBatchesOverflow","inputs":[]},{"type":"error","name":"ForcedDataDoesNotMatch","inputs":[]},{"type":"error","name":"GlobalExitRootNotExist","inputs":[]},{"type":"error","name":"HaltTimeoutNotExpired","inputs":[]},{"type":"error","name":"InitNumBatchAboveLastVerifiedBatch","inputs":[]},{"type":"error","name":"InitNumBatchDoesNotMatchPendingState","inputs":[]},{"type":"error","name":"InvalidProof","inputs":[]},{"type":"error","name":"InvalidRangeBatchTimeTarget","inputs":[]},{"type":"error","name":"InvalidRangeForceBatchTimeout","inputs":[]},{"type":"error","name":"InvalidRangeMultiplierBatchFee","inputs":[]},{"type":"error","name":"NewAccInputHashDoesNotExist","inputs":[]},{"type":"error","name":"NewPendingStateTimeoutMustBeLower","inputs":[]},{"type":"error","name":"NewStateRootNotInsidePrime","inputs":[]},{"type":"error","name":"NewTrustedAggregatorTimeoutMustBeLower","inputs":[]},{"type":"error","name":"OldAccInputHashDoesNotExist","inputs":[]},{"type":"error","name":"OldStateRootDoesNotExist","inputs":[]},{"type":"error","name":"OnlyAdmin","inputs":[]},{"type":"error","name":"OnlyPendingAdmin","inputs":[]},{"type":"error","name":"OnlyTrustedAggregator","inputs":[]},{"type":"error","name":"OnlyTrustedSequencer","inputs":[]},{"type":"error","name":"PendingStateDoesNotExist","inputs":[]},{"type":"error","name":"PendingStateInvalid","inputs":[]},{"type":"error","name":"PendingStateNotConsolidable","inputs":[]},{"type":"error","name":"PendingStateTimeoutExceedHaltAggregationTimeout","inputs":[]},{"type":"error","name":"SequenceZeroBatches","inputs":[]},{"type":"error","name":"SequencedTimestampBelowForcedTimestamp","inputs":[]},{"type":"error","name":"SequencedTimestampInvalid","inputs":[]},{"type":"error","name":"StoredRootMustBeDifferentThanNewRoot","inputs":[]},{"type":"error","name":"TransactionsLengthAboveMax","inputs":[]},{"type":"error","name":"TrustedAggregatorTimeoutExceedHaltAggregationTimeout","inputs":[]},{"type":"error","name":"TrustedAggregatorTimeoutNotExpired","inputs":[]}],"bytecode":{"object":"0x610100346200011a576001600160401b0390601f62002dd938819003918201601f1916830191848311848410176200011f578084926060946040528339810103126200011a5780516001600160a01b039182821682036200011a57602081015192831683036200011a576040015192831683036200011a5760805260a05260c0523360e052604051612ca3908162000136823960805181818161061001528181610b480152818161128e015281816118d201526120db015260a0518181816104230152611082015260c05181611159015260e0518181816102e3015281816107a4015281816108f20152818161094601528181610ab501528181610c5f01528181610f1201528181610fdb015281816110cb015261178e0152f35b600080fd5b634e487b7160e01b600052604160045260246000fdfe6080604052600436101561001257600080fd5b60003560e01c806303537393146102875780630a0d9fbe1461028257806319d8ac611461027d5780632678224714610278578063383b3be814610273578063394218e91461026e578063423fa85614610269578063458c0477146102645780634a1a89a71461025f5780634a910e6a1461025a5780634e487706146102555780635392c5e0146102505780636d00000a1461024b5780636ff512cc14610246578063715018a6146102415780637fcb36531461023c578063837a473814610237578063841b24d7146102325780638da5cb5b1461022d5780639498bd71146102285780639c9f3dfe14610223578063a066215c1461021e578063a3c573eb14610219578063ada8f91914610214578063adc879e91461020f578063afd23cbe1461020a578063b4d63f5814610205578063c0ed84e014610200578063c754c7ed146101fb578063cfa8ed47146101f6578063d02103ca146101f1578063d939b315146101ec578063e7a7ed02146101e7578063ed6b0104146101e2578063f2fde38b146101dd578063f48d7729146101d8578063f851a440146101d3578063f8b823e4146101ce5763fc3781bd146101c957600080fd5b6117db565b6117bd565b611778565b6116e3565b611337565b611311565b6112e7565b6112bd565b611278565b61124b565b611221565b6111f5565b6111a2565b61117d565b611139565b6110b1565b61106c565b610fbf565b610ef6565b610e12565b610de9565b610dc8565b610d70565b610d4f565b610cee565b610c46565b610a91565b6109f3565b61092a565b6108d6565b6108ac565b610885565b61085b565b610788565b61075b565b610708565b6106e1565b6106ba565b346104b2576020806003193601126104b2576001600160401b0390600480358381116104b257366023820112156104b257808201358481116104b2576024820191602436918360051b0101116104b2576001600160a01b0390337f000000000000000000000000000000000000000000000000000000000000000083160361069e57801561068d576103e8811161067c579160685492868416908780604096871c1691610347836001600160401b03166000526067602052604060002090565b54946000905b8282106104b757505061036d6103d6936103f296936103b4931690611d2e565b986103a56103876068546001600160401b039060401c1690565b9161039061149e565b9485526001600160401b03428e161690850152565b6001600160401b031682880152565b6103d1886001600160401b03166000526067602052604060002090565b611d49565b6001600160401b03166001600160401b03196068541617606855565b6068805467ffffffffffffffff60401b1916604086901b67ffffffffffffffff60401b16179055610421611f8a565b7f000000000000000000000000000000000000000000000000000000000000000016803b156104b257600092839251809481936379e2cf9760e01b83525af180156104ad57610494575b50167f303446e6a8cb73c83dff421c0b1d5e5ce0719dab1bff13660fc254e58cc17fce600080a2005b806104a16104a7926113cf565b806106af565b3861046b565b611d22565b600080fd5b919250946104ce6104c9878585611c58565b611c7f565b80518b8151910120908b8101908a8d8d8c85519182151594856105ed575b50505050506105dd576201d4c0815151116105cd578a01968d806105178a516001600160401b031690565b16911681109081156105c3575b506105b3578c9493926105aa926105938e6105858e8c6105506105a4985191516001600160401b031690565b915195869485019788929091606894928452602084015260408301526001600160401b0360c01b9060c01b1660608201520190565b03601f19810183528261146e565b51902096516001600160401b031690565b96611c2e565b9095949561034d565b89516375413c8b60e11b81528b90fd5b9050421038610524565b8a516328a69b1f60e21b81528c90fd5b8a516373bd668d60e01b81528c90fd5b516312bd9b1960e11b8152908101928352935083918290600090829060200103927f0000000000000000000000000000000000000000000000000000000000000000165af19081156104ad578e60009261064f575b5050158d388c8f8f6104ec565b61066e9250803d10610675575b610666818361146e565b810190611d13565b388e610642565b503d61065c565b604051635acfba9d60e11b81528490fd5b60405163cb591a5f60e01b81528490fd5b604051634755657960e01b81528490fd5b60009103126104b257565b346104b25760003660031901126104b25760206001600160401b0360655416604051908152f35b346104b25760003660031901126104b25760206001600160401b0360685416604051908152f35b346104b25760003660031901126104b257606c546040516001600160a01b039091168152602090f35b600435906001600160401b03821682036104b257565b35906001600160401b03821682036104b257565b346104b25760203660031901126104b257602061077e610779610731565b6121d1565b6040519015158152f35b346104b25760203660031901126104b2576107a1610731565b337f00000000000000000000000000000000000000000000000000000000000000006001600160a01b031603610849576001600160401b0381169062093a80821161083757606b80546001600160c01b031660c09290921b6001600160c01b0319169190911790557f1f4fa24c2e4bad19a7f3ec5c5485f70d46c798461c2e684f55bbd0fc661373a190602090604051908152a1005b604051631d06e87960e01b8152600490fd5b604051634755657960e01b8152600490fd5b346104b25760003660031901126104b25760206068546001600160401b036040519160401c168152f35b346104b25760003660031901126104b25760206001600160401b03606b5416604051908152f35b346104b25760003660031901126104b2576020606b546001600160401b036040519160401c168152f35b346104b25760203660031901126104b2576108ef610731565b337f00000000000000000000000000000000000000000000000000000000000000006001600160a01b0316036108495761092890612005565b005b346104b25760203660031901126104b257610943610731565b337f00000000000000000000000000000000000000000000000000000000000000006001600160a01b031603610849576001600160401b0381169062093a8082116109e157606c805467ffffffffffffffff60a01b191660a09290921b67ffffffffffffffff60a01b169190911790556040519081527fa7eb6cb8a613eb4e8bddc1ac3d61ec6cf10898760f0b187bcca794c6ca6fa40b90602090a1005b60405163f5e37f2f60e01b8152600490fd5b346104b25760203660031901126104b2576001600160401b03610a14610731565b1660005260696020526020604060002054604051908152f35b906101c06003198301126104b2576001600160401b039060043582811681036104b2579260243583811681036104b2579260443590811681036104b25791606435916084359161010060a3198301126104b25760a4916101c4116104b2576101a490565b346104b257610a9f36610a2d565b9395919492936001600160a01b039392909190337f000000000000000000000000000000000000000000000000000000000000000086160361084957610ae6938891611e46565b606880546001600160c01b031660c086901b6001600160c01b03191617905582610b23856001600160401b03166000526069602052604060002090565b556001600160401b039081610b40606b546001600160401b031690565b16610bf1575b7f000000000000000000000000000000000000000000000000000000000000000016803b156104b2576040516333d6247d60e01b815260048101939093526000908390602490829084905af19081156104ad577fcb339b570a7f0b25afa7333371ff11192092a0aeace12b671f4c212f2815c6fe92610bd992610bde575b50604051938452339416929081906020820190565b0390a3005b806104a1610beb926113cf565b38610bc4565b610c066001600160401b0319606b5416606b55565b610c1f67ffffffffffffffff60401b19606b5416606b55565b610b46565b60209060031901126104b2576004356001600160a01b03811681036104b25790565b346104b257610c5436610c24565b6001600160a01b03337f000000000000000000000000000000000000000000000000000000000000000082160361084957606580547fffff0000000000000000000000000000000000000000ffffffffffffffffffff16605084901b600160501b600160f01b0316179055604051911681527ff54144f9611984021529f814a1cb6a41e22c58351510a0d9f7e822618abb9cc090602090a1005b346104b257600080600319360112610d4c57610d08611a95565b603380546001600160a01b0319811690915581906001600160a01b03167f8be0079c531659141344cd1fd0a4f28419497f9722a3daafe3b4186f6b6457e08280a380f35b80fd5b346104b25760003660031901126104b257602060685460c01c604051908152f35b346104b25760203660031901126104b257600435600052606a602052608060406000208054906001600160401b0390600260018201549101549160405193818116855260401c16602084015260408301526060820152f35b346104b25760003660031901126104b2576020606b5460c01c604051908152f35b346104b25760003660031901126104b2576033546040516001600160a01b039091168152602090f35b346104b25760203660031901126104b257600054610e4760ff8260081c161580928193610ee8575b8115610ec8575b50611b36565b80610e5a600160ff196000541617600055565b610eaf575b610e6a600435611b99565b610e7057005b610e8061ff001960005416600055565b604051600181527f7f26b83ff96e1f2b6a682f133852f6798a09c465da95921460cefb384740249890602090a1005b610ec361010061ff00196000541617600055565b610e5f565b303b15915081610eda575b5038610e41565b6001915060ff161438610ed3565b600160ff8216109150610e3a565b346104b25760203660031901126104b257610f0f610731565b337f00000000000000000000000000000000000000000000000000000000000000006001600160a01b031603610849576001600160401b0381169062093a808211610fad57606b805467ffffffffffffffff60801b191660809290921b67ffffffffffffffff60801b169190911790556040519081527fc4121f4e22c69632ebb7cf1f462be0511dc034f999b52013eddfb24aab765c7590602090a1005b604051630cc9650760e41b8152600490fd5b346104b25760203660031901126104b257610fd8610731565b337f00000000000000000000000000000000000000000000000000000000000000006001600160a01b031603610849576001600160401b031662015180811161105a576020817f1b023231a1ab6b5d93992f168fb44498e1a7e64cef58daff6f1c216de6a68c28926001600160401b03196065541617606555604051908152a1005b604051631c0cfbfd60e31b8152600490fd5b346104b25760003660031901126104b2576040517f00000000000000000000000000000000000000000000000000000000000000006001600160a01b03168152602090f35b346104b2576110bf36610c24565b6001600160a01b0390337f0000000000000000000000000000000000000000000000000000000000000000831603610849577fa5b56b7906fd0a20e3f35120dd8343db1e12e037a6c90111c7e42885e82a1ce69160209116806bffffffffffffffffffffffff60a01b606c541617606c55604051908152a1005b346104b25760003660031901126104b25760206040516001600160401b037f0000000000000000000000000000000000000000000000000000000000000000168152f35b346104b25760003660031901126104b257602060655461ffff6040519160401c168152f35b346104b25760203660031901126104b25760606001600160401b03806111c6610731565b16600052606760205260406000209060018254920154604051928352818116602084015260401c166040820152f35b346104b25760003660031901126104b257602061121061219d565b6001600160401b0360405191168152f35b346104b25760003660031901126104b25760206001600160401b03606c5460a01c16604051908152f35b346104b25760003660031901126104b25760655460405160509190911c6001600160a01b03168152602090f35b346104b25760003660031901126104b2576040517f00000000000000000000000000000000000000000000000000000000000000006001600160a01b03168152602090f35b346104b25760003660031901126104b25760206001600160401b03606b5460801c16604051908152f35b346104b25760003660031901126104b25760206001600160401b0360685460801c16604051908152f35b346104b25760003660031901126104b257602060ff606c5460e01c166040519015158152f35b346104b25761134536610c24565b61134d611a95565b6001600160a01b038116156113655761092890611aed565b60405162461bcd60e51b815260206004820152602660248201527f4f776e61626c653a206e6577206f776e657220697320746865207a65726f206160448201526564647265737360d01b6064820152608490fd5b634e487b7160e01b600052604160045260246000fd5b6001600160401b0381116113e257604052565b6113b9565b604081019081106001600160401b038211176113e257604052565b606081019081106001600160401b038211176113e257604052565b608081019081106001600160401b038211176113e257604052565b602081019081106001600160401b038211176113e257604052565b60a081019081106001600160401b038211176113e257604052565b90601f801991011681019081106001600160401b038211176113e257604052565b6040519061149c8261141d565b565b6040519061149c82611402565b6040519061149c826113e7565b60409060031901126104b257604051906114d1826113e7565b60043582526024356020830152565b60409060c31901126104b257604051906114f9826113e7565b60c435825260e4356020830152565b91908260409103126104b257604051611520816113e7565b6020808294803584520135910152565b906040519161153e83611438565b826101249182116104b257610104905b82821061155a57505050565b813581526020918201910161154e565b604051929161157884611438565b836020928381019283116104b257905b8282106115955750505050565b81358152908301908301611588565b80606312156104b257604051906115ba826113e7565b8160849182116104b2576044905b8282106115d55750505090565b81358152602091820191016115c8565b8060a312156104b257604051906115fb826113e7565b8160c49182116104b2576084905b8282106116165750505090565b8135815260209182019101611609565b9080601f830112156104b2576040519161163f836113e7565b8290604081019283116104b257905b82821061165b5750505090565b813581526020918201910161164e565b808203929161010084126104b2576040519161168683611402565b608083956116948484611508565b8552603f1901126104b25760409160c06116de9284516116b3816113e7565b6116bf84878401611626565b81526116ce8460808401611626565b6020820152602087015201611508565b910152565b346104b257366003190161012081126104b257610100136104b25760405161170a81611402565b611713366114b8565b815260803660431901126104b25760405161172d816113e7565b611736366115a4565b8152611741366115e5565b60208201526020820152611754366114e0565b60408201523661012312156104b25761077e60209161177236611530565b9061229f565b346104b25760003660031901126104b2576040517f00000000000000000000000000000000000000000000000000000000000000006001600160a01b03168152602090f35b346104b25760003660031901126104b2576020606654604051908152f35b346104b2576117e936610a2d565b90929395919461181f6001611811896001600160401b03166000526067602052604060002090565b01546001600160401b031690565b91611831606b54938460c01c90611d2e565b946001600160401b03958642911611611a83576103e886611852858c611da4565b1611611a715788611864938796611e46565b60801c1661199e57606880546001600160c01b031660c086901b6001600160c01b031916179055826118a9856001600160401b03166000526069602052604060002090565b556118cb6118bf606b546001600160401b031690565b6001600160401b031690565b61196b575b7f00000000000000000000000000000000000000000000000000000000000000006001600160a01b0316803b156104b2576040516333d6247d60e01b815260048101939093526000908390602490829084905af19081156104ad577f9c72852172521097ba7e1482e6b44b351323df0155f97f4ea18fcec28e1f596692610bd992610bde57505b604051938452339416929081906020820190565b6119806001600160401b0319606b5416606b55565b61199967ffffffffffffffff60401b19606b5416606b55565b6118d0565b610bd990611a6c7f9c72852172521097ba7e1482e6b44b351323df0155f97f4ea18fcec28e1f5966936119cf611f8a565b611a086119ec6119e7606b546001600160401b031690565b611dbd565b6001600160401b03166001600160401b0319606b541617606b55565b611a1061148f565b6001600160401b03428516168152906001600160401b03881660208301526040820152856060820152611a67611a4e606b546001600160401b031690565b6001600160401b0316600052606a602052604060002090565b611dd5565b611957565b604051635acfba9d60e11b8152600490fd5b604051638a0704d360e01b8152600490fd5b6033546001600160a01b03163303611aa957565b606460405162461bcd60e51b815260206004820152602060248201527f4f776e61626c653a2063616c6c6572206973206e6f7420746865206f776e65726044820152fd5b603380546001600160a01b039283166001600160a01b0319821681179092559091167f8be0079c531659141344cd1fd0a4f28419497f9722a3daafe3b4186f6b6457e0600080a3565b15611b3d57565b60405162461bcd60e51b815260206004820152602e60248201527f496e697469616c697a61626c653a20636f6e747261637420697320616c72656160448201526d191e481a5b9a5d1a585b1a5e995960921b6064820152608490fd5b60008052606960205260406000205560ff60005460081c1615611bbf5761149c33611aed565b60405162461bcd60e51b815260206004820152602b60248201527f496e697469616c697a61626c653a20636f6e7472616374206973206e6f74206960448201526a6e697469616c697a696e6760a81b6064820152608490fd5b634e487b7160e01b600052601160045260246000fd5b6000198114611c3d5760010190565b611c18565b634e487b7160e01b600052603260045260246000fd5b9190811015611c7a5760051b81013590605e19813603018212156104b2570190565b611c42565b6060813603126104b25760405190611c9682611402565b6001600160401b039080358281116104b25781019036601f830112156104b25781359260209084116113e257604051611cd8601f8601601f191683018261146e565b848152368286860101116104b25760008286611d0b97826040980183860137830101528552808201359085015201610747565b604082015290565b908160209103126104b2575190565b6040513d6000823e3d90fd5b9190916001600160401b0380809416911601918211611c3d57565b8151815560208201516001909101805467ffffffffffffffff19166001600160401b0392831617815561149c9290919060400151825467ffffffffffffffff60401b1916911660401b67ffffffffffffffff60401b16179055565b6001600160401b039182169082160391908211611c3d57565b6001600160401b03809116908114611c3d5760010190565b906060600291611e356001600160401b03611e098184511687906001600160401b03166001600160401b0319825416179055565b6020830151865467ffffffffffffffff60401b1916911660401b67ffffffffffffffff60401b16178555565b604081015160018501550151910155565b90939293611e5261219d565b6001600160401b03929091908084168015611f2f57611e7c6118bf606b546001600160401b031690565b10611f1d57611eb56118bf611ea586936001600160401b0316600052606a602052604060002090565b5460401c6001600160401b031690565b911603611f0b5781905b1691161115611ef957611772611ed9611ee193369061166b565b91369061156a565b611ee757565b6040516309bde33960e01b8152600490fd5b60405163b9b18f5760e01b8152600490fd5b604051632bd2e3e760e01b8152600490fd5b60405163bb14c20560e01b8152600490fd5b5050611f4e816001600160401b03166000526069602052604060002090565b5415611f785782808316911611611f66578190611ebf565b604051630f2b74f160e11b8152600490fd5b6040516324cbdcc360e11b8152600490fd5b606b546001600160401b0390818082169160401c16808211611fab57505050565b600101918211611c3d57611fbe826121d1565b611fc6575050565b677fffffffffffffff611fdc83611fe693611da4565b60011c1682611d2e565b90611ff0826121d1565b15611fff575061149c90612005565b61149c91505b606b54906001600160401b038082169281808260401c16851191821592612191575b505061217f5761204a826001600160401b0316600052606a602052604060002090565b9061206082546001600160401b039060401c1690565b606880546001600160c01b031660c083901b6001600160c01b031916179055926120d1600284019182546120a7876001600160401b03166000526069602052604060002090565b5567ffffffffffffffff60401b606b549160401b169067ffffffffffffffff60401b191617606b55565b60019290920154917f00000000000000000000000000000000000000000000000000000000000000006001600160a01b0316803b156104b2576040516333d6247d60e01b815260048101949094526000908490602490829084905af19283156104ad577f328d3c6c0fd6f1be0515e422f2d87e59f25922cbc2233568515a0c4bc3f8510e9361216c575b5054604051908152921691602090a3565b806104a1612179926113cf565b3861215b565b60405163d086b70b60e01b8152600490fd5b16841190508138612027565b606b546001600160401b0390811680156121c657600052606a60205260406000205460401c1690565b505060685460c01c90565b6001600160401b03809116600052606a6020526121fd816040600020541682606b5460801c1690611d2e565b429116111590565b6001600160401b0381116113e25760051b60200190565b9061222682612205565b612233604051918261146e565b8281528092612244601f1991612205565b0190602036910137565b805115611c7a5760200190565b805160011015611c7a5760400190565b805160021015611c7a5760600190565b805160031015611c7a5760800190565b8051821015611c7a5760209160051b010190565b6040516122ab816113e7565b6001928382526020368184013760005b8481106122db575050906122ce91612348565b6122d55790565b50600090565b806122f69160051b8301516122f0828661228b565b52611c2e565b6122bb565b9060018201809211611c3d57565b9060028201809211611c3d57565b9060038201809211611c3d57565b9060048201809211611c3d57565b9060058201809211611c3d57565b156104b257565b919091612353612919565b9161235e82516122fb565b90612370608085019283515114612341565b6123786114ab565b6000815260006020820152946000955b8451871015612402576105a46123fc916123cd7f30644e72e131a029b85045b68181585d2833e84879b9709143e1f593f00000016123c68b8a61228b565b5110612341565b6123f66123e487516123de8c6122fb565b9061228b565b516123ef8b8a61228b565b519061257a565b9061252a565b95612388565b61246695929650612462945061241c61242392945161224e565b519061252a565b82519261243460208201519261248d565b9061244660408086015192015161248d565b916060850151936020612459875161248d565b9601519661266a565b1590565b61246f57600090565b600190565b60405190612481826113e7565b60006020838281520152565b612495612474565b508051158061250a575b6124ef5760208151917f30644e72e131a029b85045b68181585d97816a916871ca8d3c208c16d87cfd479182910151068103908111611c3d57604051916124e5836113e7565b8252602082015290565b506040516124fc816113e7565b600081526000602082015290565b5060208101511561249f565b6040519061252382611438565b6020368337565b6020929160c060609261253b612474565b958693816040519361254c8561141d565b6080368637805185520151828401528051604084015201518482015260066107cf195a01fa1561257857565bfe5b91906060906080612589612474565b94859260206040519261259b84611402565b863685378051845201516020830152604082015260076107cf195a01fa1561257857565b604051906125cc82611453565b600482528160005b608081106125e0575050565b6020906125eb612474565b828285010152016125d4565b60409081519161260683611402565b600283528260005b82811061261a57505050565b602090612625612474565b8282850101520161260e565b6040519061263e826113e7565b8160405161264b816113e7565b60403682378152602060405191612661836113e7565b60403684370152565b979693949291956126796125bf565b956040519761268789611453565b6004895260005b608081106127445750612741999a6126a58961224e565b526126af8861224e565b506126b98861225b565b526126c38761225b565b506126cd8761226b565b526126d78661226b565b506126e18661227b565b526126eb8561227b565b506126f58661224e565b526126ff8561224e565b506127098561225b565b526127138461225b565b5061271d8461226b565b526127278361226b565b506127318361227b565b5261273b8261227b565b50612771565b90565b60209061274f612631565b82828d0101520161268e565b90600682029180830460061490151715611c3d57565b805161277f83518214612341565b6127888161275b565b926127928461221c565b9260005b8381106127d4575050505060209182916127ae612516565b93849260051b910160086107cf195a01fa8015612578576127ce90612341565b51151590565b806127e26128be928461228b565b51516127f66127f08361275b565b8861228b565b52602080612804838661228b565b51015161282161281b6128168561275b565b6122fb565b8961228b565b5261283761282f838761228b565b515160200190565b5161284c61281b6128478561275b565b612309565b52612857828661228b565b51515161286e61281b6128698561275b565b612317565b526128868161287d848861228b565b51015160200190565b5161289b61281b6128968561275b565b612325565b526128a6828661228b565b510151516122f06127f06128b98461275b565b612333565b612796565b6040519060a082018281106001600160401b038211176113e25760405260606080836128ed612474565b81526128f7612631565b6020820152612904612631565b6040820152612911612631565b838201520152565b6129216128c3565b90612c6a61292d6114ab565b7f286cd17282af60cd2295fe74102e263890d3f520e66cb7272426b9e33ad6dc2681526020907f015b0439f72dd97fd07dec5b86314bb06649a69faee911d3b9f51e122f0572248282015284526129826114ab565b7f01bc2d0e1b058937a707d4554e9d2e26a44eaafbbf2933a3f2068cf6866520bf81527f1c44531f30ab63540164d6a11411841f7c845a58b180f69ffa15295be319e82d828201526129d26114ab565b7f148d6010a8956aa2bdc30562b02883e2675e4d005de5d20f4dce773217e9c51681527f1bb933d3051ebfd0bb38d1ed1312777ac2f65bc69896ad8b5422299b2169dd8383820152612a226114ab565b9182528282015281850152612a356114ab565b7e29f2aa65ed44f30bbe6b29c4e7aee173d6b29bded770184bb6a45a7328cbb281527f21e67773eea4fe317bc2521b0e3e46ae3d6ae8d12325a8482e62d3e26d99b47882820152612a846114ab565b7f0f5e5c4e2d6ad50f39334553aba65f4c03ed0f710eb227fe3ee8a0a508a9203381527f0165cb21465ccf2d320a94ce7356be1f42871c5ba5370952ace3ff76c6baab6a83820152612ad46114ab565b918252828201526040850152612ae86114ab565b7f187e4b6e20ff76e3bb84dd72b8ee9d0f1c26de600dbee716f6a25dd53ee6a92481527f021ef001f16908023b3bad33c83004f6e281d367e45a16acba40c340a2da524682820152612b386114ab565b7f2240a5532ccf19f1df460a49fd8fef835d52ae6d4dbea7ff978cf2231a59087981527f26f930b580037b594fbe5eb8527e03ffbcd4f0c70b2077f0757acaf3356835fe83820152612b886114ab565b918252828201526060850152612b9c6125f7565b60808501908152612c08612bae6114ab565b7f08e7628b53d973750e52b28fb4f697879294cfa8843744bbe4569d76848ef13a81527f0ccbdf5308fa160229c6bfea4a1be78dca12ec6e05c564fbc889f3fbc8981d1184820152825190612c028261224e565b5261224e565b507f27b22f17fe29d3725a5e0acf97a97be1da8bf21d5ea25f62de06def24bce7856612c326114ab565b927f03d66c72cdec7209ee63f01f40e08acf8e9a97a9a3a271f82174f0d6c2d2478c84528301525190612c648261225b565b5261225b565b5056fea2646970667358221220f341f6699e187a2b9492abda9b5f6d7de08c04bc0733194f8ad2113f1c75a8ea64736f6c63430008150033","linkReferences":{}},"methodIdentifiers":{"admin()":"f851a440","batchFee()":"f8b823e4","batchNumToStateRoot(uint64)":"5392c5e0","bridgeAddress()":"a3c573eb","chainID()":"adc879e9","consolidatePendingState(uint64)":"4a910e6a","forceBatchTimeout()":"c754c7ed","getLastVerifiedBatch()":"c0ed84e0","globalExitRootManager()":"d02103ca","initialize(bytes32)":"9498bd71","isForcedBatchDisallowed()":"ed6b0104","isPendingStateConsolidable(uint64)":"383b3be8","lastBatchSequenced()":"423fa856","lastForceBatch()":"e7a7ed02","lastPendingState()":"458c0477","lastPendingStateConsolidated()":"4a1a89a7","lastTimestamp()":"19d8ac61","lastVerifiedBatch()":"7fcb3653","multiplierBatchFee()":"afd23cbe","owner()":"8da5cb5b","pendingAdmin()":"26782247","pendingStateTimeout()":"d939b315","pendingStateTransitions(uint256)":"837a4738","renounceOwnership()":"715018a6","sequenceBatches((bytes,bytes32,uint64)[])":"03537393","sequencedBatches(uint64)":"b4d63f58","setForceBatchTimeout(uint64)":"4e487706","setPendingStateTimeout(uint64)":"9c9f3dfe","setTrustedAggregatorTimeout(uint64)":"394218e9","setTrustedSequencer(address)":"6ff512cc","setVerifyBatchTimeTarget(uint64)":"a066215c","transferAdminRole(address)":"ada8f919","transferOwnership(address)":"f2fde38b","trustedAggregatorTimeout()":"841b24d7","trustedSequencer()":"cfa8ed47","verifyBatchTimeTarget()":"0a0d9fbe","verifyBatches(uint64,uint64,uint64,bytes32,bytes32,((uint256,uint256),(uint256[2],uint256[2]),(uint256,uint256)),uint256[1])":"fc3781bd","verifyBatchesTrustedAggregator(uint64,uint64,uint64,bytes32,bytes32,((uint256,uint256),(uint256[2],uint256[2]),(uint256,uint256)),uint256[1])":"6d00000a","verifyTx(((uint256,uint256),(uint256[2],uint256[2]),(uint256,uint256)),uint256[1])":"f48d7729"},"id":49}